{
  "transactions": [
    {
      "hash": "0x77ee52eed661fe60d2ce48e44accbe787f0a7d0acd1dfdb06ed84671c8dcd321",
      "transactionType": "CALL",
      "contractName": null,
      "contractAddress": "0x5fbdb2315678afecb367f032d93f642f64180aa3",
      "function": "configureEventSale(uint256,uint256,uint256,uint256)",
      "arguments": [
        "1",
        "10000000000000000",
        "500",
        "50"
      ],
      "transaction": {
        "from": "0xf39fd6e51aad88f6f4ce6ab8827279cfffb92266",
        "to": "0x5fbdb2315678afecb367f032d93f642f64180aa3",
        "gas": "0x330e7",
        "value": "0x0",
        "input": "0x4a34ba090000000000000000000000000000000000000000000000000000000000000001000000000000000000000000000000000000000000000000002386f26fc1000000000000000000000000000000000000000000000000000000000000000001f40000000000000000000000000000000000000000000000000000000000000032",
        "nonce": "0x1",
        "chainId": "0x7a69"
      },
      "additionalContracts": [],
      "isFixedGasLimit": false
    },
    {
      "hash": "0x995c732bf2111ad4f43df6ebc8eb6757608708917fcabf759a8f39de18989cc3",
      "transactionType": "CALL",
      "contractName": null,
      "contractAddress": "0x5fbdb2315678afecb367f032d93f642f64180aa3",
      "function": "configureEventSale(uint256,uint256,uint256,uint256)",
      "arguments": [
        "2",
        "50000000000000000",
        "100",
        "75"
      ],
      "transaction": {
        "from": "0xf39fd6e51aad88f6f4ce6ab8827279cfffb92266",
        "to": "0x5fbdb2315678afecb367f032d93f642f64180aa3",
        "gas": "0x30374",
        "value": "0x0",
        "input": "0x4a34ba09000000000000000000000000000000000000000000000000000000000000000200000000000000000000000000000000000000000000000000b1a2bc2ec500000000000000000000000000000000000000000000000000000000000000000064000000000000000000000000000000000000000000000000000000000000004b",
        "nonce": "0x2",
        "chainId": "0x7a69"
      },
      "additionalContracts": [],
      "isFixedGasLimit": false
    },
    {
      "hash": "0x79cc1cae98fea05d961f232caaedc69c3ee9da3f884c54f2cdc40e61a0dda200",
      "transactionType": "CALL",
      "contractName": null,
      "contractAddress": "0x5fbdb2315678afecb367f032d93f642f64180aa3",
      "function": "configureEventSale(uint256,uint256,uint256,uint256)",
      "arguments": [
        "3",
        "20000000000000000",
        "200",
        "60"
      ],
      "transaction": {
        "from": "0xf39fd6e51aad88f6f4ce6ab8827279cfffb92266",
        "to": "0x5fbdb2315678afecb367f032d93f642f64180aa3",
        "gas": "0x30374",
        "value": "0x0",
        "input": "0x4a34ba09000000000000000000000000000000000000000000000000000000000000000300000000000000000000000000000000000000000000000000470de4df82000000000000000000000000000000000000000000000000000000000000000000c8000000000000000000000000000000000000000000000000000000000000003c",
        "nonce": "0x3",
        "chainId": "0x7a69"
      },
      "additionalContracts": [],
      "isFixedGasLimit": false
    }
  ],
  "receipts": [
    {
      "status": "0x1",
      "cumulativeGasUsed": "0x22e91",
      "logs": [
        {
          "address": "0x5fbdb2315678afecb367f032d93f642f64180aa3",
          "topics": [
            "0x58baaadea2cb621ef6d4e8beecb380e4aff14ecb77e3c2e40f043a666cb14c2d",
            "0x0000000000000000000000000000000000000000000000000000000000000001"
          ],
          "data": "0x000000000000000000000000000000000000000000000000002386f26fc1000000000000000000000000000000000000000000000000000000000000000001f40000000000000000000000000000000000000000000000000000000000000032",
          "blockHash": "0x34e547d05eea533224ed2bdbff07030a31319fe3a32aca17dbb91215ce7bcbd4",
          "blockNumber": "0x2",
          "blockTimestamp": "0x691e93c6",
          "transactionHash": "0x77ee52eed661fe60d2ce48e44accbe787f0a7d0acd1dfdb06ed84671c8dcd321",
          "transactionIndex": "0x0",
          "logIndex": "0x0",
          "removed": false
        }
      ],
      "logsBloom": "0x00000000000000000000000000000000000000000000000000000000000000000000000000000000000000000000000000000000000000000000000002040000000000000000000000000000000000000000000000040000000000000000000000000040000000000000000000000000000000000000000000000000000000000000000000000000000000000000000000000000000000000000000200000000000000000000000000000000000000000040000000000000000000000000000000000040000000000000000000800000000000000000000000000000000040000000000000000000000000000000000000000000000000000000000000000000",
      "type": "0x2",
      "transactionHash": "0x77ee52eed661fe60d2ce48e44accbe787f0a7d0acd1dfdb06ed84671c8dcd321",
      "transactionIndex": "0x0",
      "blockHash": "0x34e547d05eea533224ed2bdbff07030a31319fe3a32aca17dbb91215ce7bcbd4",
      "blockNumber": "0x2",
      "gasUsed": "0x22e91",
      "effectiveGasPrice": "0x36a70694",
      "blobGasPrice": "0x1",
      "from": "0xf39fd6e51aad88f6f4ce6ab8827279cfffb92266",
      "to": "0x5fbdb2315678afecb367f032d93f642f64180aa3",
      "contractAddress": null
    },
    {
      "status": "0x1",
      "cumulativeGasUsed": "0x22e85",
      "logs": [
        {
          "address": "0x5fbdb2315678afecb367f032d93f642f64180aa3",
          "topics": [
            "0x58baaadea2cb621ef6d4e8beecb380e4aff14ecb77e3c2e40f043a666cb14c2d",
            "0x0000000000000000000000000000000000000000000000000000000000000002"
          ],
          "data": "0x00000000000000000000000000000000000000000000000000b1a2bc2ec500000000000000000000000000000000000000000000000000000000000000000064000000000000000000000000000000000000000000000000000000000000004b",
          "blockHash": "0xea48e9257e0201bed9e91f03a5569e0cd9b579901afc6d0c39bd19eecff07c84",
          "blockNumber": "0x3",
          "blockTimestamp": "0x691e93c6",
          "transactionHash": "0x995c732bf2111ad4f43df6ebc8eb6757608708917fcabf759a8f39de18989cc3",
          "transactionIndex": "0x0",
          "logIndex": "0x0",
          "removed": false
        }
      ],
      "logsBloom": "0x04000000000000000000000000000000000000000000000000000000000000000000000000000000000000000000000000000000000000000000000002000000000000000000000000000000000000000000000000000000000000000000000000000040000000000000000000000000000000000000000000000000000000000000000000000000000000000000000000000000000000000000000200000000000000000000000000000100000000000040000000000000000000000000000000000040000000000000000000800000000000000000000000000000000000000000000000000000000000000000000000000000008000000000000000000000",
      "type": "0x2",
      "transactionHash": "0x995c732bf2111ad4f43df6ebc8eb6757608708917fcabf759a8f39de18989cc3",
      "transactionIndex": "0x0",
      "blockHash": "0xea48e9257e0201bed9e91f03a5569e0cd9b579901afc6d0c39bd19eecff07c84",
      "blockNumber": "0x3",
      "gasUsed": "0x22e85",
      "effectiveGasPrice": "0x2fe2d1bf",
      "blobGasPrice": "0x1",
      "from": "0xf39fd6e51aad88f6f4ce6ab8827279cfffb92266",
      "to": "0x5fbdb2315678afecb367f032d93f642f64180aa3",
      "contractAddress": null
    },
    {
      "status": "0x1",
      "cumulativeGasUsed": "0x22e85",
      "logs": [
        {
          "address": "0x5fbdb2315678afecb367f032d93f642f64180aa3",
          "topics": [
            "0x58baaadea2cb621ef6d4e8beecb380e4aff14ecb77e3c2e40f043a666cb14c2d",
            "0x0000000000000000000000000000000000000000000000000000000000000003"
          ],
          "data": "0x00000000000000000000000000000000000000000000000000470de4df82000000000000000000000000000000000000000000000000000000000000000000c8000000000000000000000000000000000000000000000000000000000000003c",
          "blockHash": "0x1fd3662d7e5f7c6d8fc58931c70eadfd9da6e0ab339a2139b1f9dbc2b305c18d",
          "blockNumber": "0x4",
          "blockTimestamp": "0x691e93c6",
          "transactionHash": "0x79cc1cae98fea05d961f232caaedc69c3ee9da3f884c54f2cdc40e61a0dda200",
          "transactionIndex": "0x0",
          "logIndex": "0x0",
          "removed": false
        }
      ],
      "logsBloom": "0x00000000000000000000000000000000000000000000000000000000000000000000000000000000000000000000000000000000020000000000000002000000000000000000000000000000000000000000000000000000000000000000000000000040000000000000000000000000000000000000000000000000000000000000000000000000000000000000000000000000000000000000000200000000000000000000000000000000000000000040000000800000000000000000400000000040000000000000000000800000000000000000000000000000000000000000000000000000000000000000000000000000000000000000000000000000",
      "type": "0x2",
      "transactionHash": "0x79cc1cae98fea05d961f232caaedc69c3ee9da3f884c54f2cdc40e61a0dda200",
      "transactionIndex": "0x0",
      "blockHash": "0x1fd3662d7e5f7c6d8fc58931c70eadfd9da6e0ab339a2139b1f9dbc2b305c18d",
      "blockNumber": "0x4",
      "gasUsed": "0x22e85",
      "effectiveGasPrice": "0x29f512ca",
      "blobGasPrice": "0x1",
      "from": "0xf39fd6e51aad88f6f4ce6ab8827279cfffb92266",
      "to": "0x5fbdb2315678afecb367f032d93f642f64180aa3",
      "contractAddress": null
    }
  ],
  "libraries": [],
  "pending": [],
  "returns": {},
  "timestamp": 1763611590509,
  "chain": 31337,
  "commit": "a489a14"
}