{
  "transactions": [
    {
      "hash": "0x6ad523d0abc6ea83728c29b675598a0ead3641bab12bd195a2e23649b3ec0a9c",
      "transactionType": "CALL",
      "contractName": null,
      "contractAddress": "0x5fbdb2315678afecb367f032d93f642f64180aa3",
      "function": "configureEventSale(uint256,uint256,uint256,uint256)",
      "arguments": [
        "1",
        "10000000000000000",
        "500",
        "50"
      ],
      "transaction": {
        "from": "0xf39fd6e51aad88f6f4ce6ab8827279cfffb92266",
        "to": "0x5fbdb2315678afecb367f032d93f642f64180aa3",
        "gas": "0x330c6",
        "value": "0x0",
        "input": "0x4a34ba090000000000000000000000000000000000000000000000000000000000000001000000000000000000000000000000000000000000000000002386f26fc1000000000000000000000000000000000000000000000000000000000000000001f40000000000000000000000000000000000000000000000000000000000000032",
        "nonce": "0x1",
        "chainId": "0x7a69"
      },
      "additionalContracts": [],
      "isFixedGasLimit": false
    },
    {
      "hash": "0xc776d8be927eee01112ffd1a94ff6f4a8aed7ba96daa9831e8595744a81dd581",
      "transactionType": "CALL",
      "contractName": null,
      "contractAddress": "0x5fbdb2315678afecb367f032d93f642f64180aa3",
      "function": "configureEventSale(uint256,uint256,uint256,uint256)",
      "arguments": [
        "2",
        "50000000000000000",
        "100",
        "75"
      ],
      "transaction": {
        "from": "0xf39fd6e51aad88f6f4ce6ab8827279cfffb92266",
        "to": "0x5fbdb2315678afecb367f032d93f642f64180aa3",
        "gas": "0x30354",
        "value": "0x0",
        "input": "0x4a34ba09000000000000000000000000000000000000000000000000000000000000000200000000000000000000000000000000000000000000000000b1a2bc2ec500000000000000000000000000000000000000000000000000000000000000000064000000000000000000000000000000000000000000000000000000000000004b",
        "nonce": "0x2",
        "chainId": "0x7a69"
      },
      "additionalContracts": [],
      "isFixedGasLimit": false
    },
    {
      "hash": "0x91067bd2a130021867b0edc2f93b076ca5f4a608117e41d29fe453dd202eac19",
      "transactionType": "CALL",
      "contractName": null,
      "contractAddress": "0x5fbdb2315678afecb367f032d93f642f64180aa3",
      "function": "configureEventSale(uint256,uint256,uint256,uint256)",
      "arguments": [
        "3",
        "20000000000000000",
        "200",
        "60"
      ],
      "transaction": {
        "from": "0xf39fd6e51aad88f6f4ce6ab8827279cfffb92266",
        "to": "0x5fbdb2315678afecb367f032d93f642f64180aa3",
        "gas": "0x30354",
        "value": "0x0",
        "input": "0x4a34ba09000000000000000000000000000000000000000000000000000000000000000300000000000000000000000000000000000000000000000000470de4df82000000000000000000000000000000000000000000000000000000000000000000c8000000000000000000000000000000000000000000000000000000000000003c",
        "nonce": "0x3",
        "chainId": "0x7a69"
      },
      "additionalContracts": [],
      "isFixedGasLimit": false
    }
  ],
  "receipts": [
    {
      "status": "0x1",
      "cumulativeGasUsed": "0x22e7b",
      "logs": [
        {
          "address": "0x5fbdb2315678afecb367f032d93f642f64180aa3",
          "topics": [
            "0x58baaadea2cb621ef6d4e8beecb380e4aff14ecb77e3c2e40f043a666cb14c2d",
            "0x0000000000000000000000000000000000000000000000000000000000000001"
          ],
          "data": "0x000000000000000000000000000000000000000000000000002386f26fc1000000000000000000000000000000000000000000000000000000000000000001f40000000000000000000000000000000000000000000000000000000000000032",
          "blockHash": "0xeff57ba5e8e5ee4ff7a48d861d09998ce0ade11b9623e469cc619bc387c7672b",
          "blockNumber": "0x2",
          "blockTimestamp": "0x691f3d92",
          "transactionHash": "0x6ad523d0abc6ea83728c29b675598a0ead3641bab12bd195a2e23649b3ec0a9c",
          "transactionIndex": "0x0",
          "logIndex": "0x0",
          "removed": false
        }
      ],
      "logsBloom": "0x00000000000000000000000000000000000000000000000000000000000000000000000000000000000000000000000000000000000000000000000002040000000000000000000000000000000000000000000000040000000000000000000000000040000000000000000000000000000000000000000000000000000000000000000000000000000000000000000000000000000000000000000200000000000000000000000000000000000000000040000000000000000000000000000000000040000000000000000000800000000000000000000000000000000040000000000000000000000000000000000000000000000000000000000000000000",
      "type": "0x2",
      "transactionHash": "0x6ad523d0abc6ea83728c29b675598a0ead3641bab12bd195a2e23649b3ec0a9c",
      "transactionIndex": "0x0",
      "blockHash": "0xeff57ba5e8e5ee4ff7a48d861d09998ce0ade11b9623e469cc619bc387c7672b",
      "blockNumber": "0x2",
      "gasUsed": "0x22e7b",
      "effectiveGasPrice": "0x36cc9047",
      "blobGasPrice": "0x1",
      "from": "0xf39fd6e51aad88f6f4ce6ab8827279cfffb92266",
      "to": "0x5fbdb2315678afecb367f032d93f642f64180aa3",
      "contractAddress": null
    },
    {
      "status": "0x1",
      "cumulativeGasUsed": "0x22e6f",
      "logs": [
        {
          "address": "0x5fbdb2315678afecb367f032d93f642f64180aa3",
          "topics": [
            "0x58baaadea2cb621ef6d4e8beecb380e4aff14ecb77e3c2e40f043a666cb14c2d",
            "0x0000000000000000000000000000000000000000000000000000000000000002"
          ],
          "data": "0x00000000000000000000000000000000000000000000000000b1a2bc2ec500000000000000000000000000000000000000000000000000000000000000000064000000000000000000000000000000000000000000000000000000000000004b",
          "blockHash": "0xe21699a7065a048f491c75a31bb11384d754471554eeba1e61965035e6afa3ba",
          "blockNumber": "0x3",
          "blockTimestamp": "0x691f3d92",
          "transactionHash": "0xc776d8be927eee01112ffd1a94ff6f4a8aed7ba96daa9831e8595744a81dd581",
          "transactionIndex": "0x0",
          "logIndex": "0x0",
          "removed": false
        }
      ],
      "logsBloom": "0x04000000000000000000000000000000000000000000000000000000000000000000000000000000000000000000000000000000000000000000000002000000000000000000000000000000000000000000000000000000000000000000000000000040000000000000000000000000000000000000000000000000000000000000000000000000000000000000000000000000000000000000000200000000000000000000000000000100000000000040000000000000000000000000000000000040000000000000000000800000000000000000000000000000000000000000000000000000000000000000000000000000008000000000000000000000",
      "type": "0x2",
      "transactionHash": "0xc776d8be927eee01112ffd1a94ff6f4a8aed7ba96daa9831e8595744a81dd581",
      "transactionIndex": "0x0",
      "blockHash": "0xe21699a7065a048f491c75a31bb11384d754471554eeba1e61965035e6afa3ba",
      "blockNumber": "0x3",
      "gasUsed": "0x22e6f",
      "effectiveGasPrice": "0x3003b506",
      "blobGasPrice": "0x1",
      "from": "0xf39fd6e51aad88f6f4ce6ab8827279cfffb92266",
      "to": "0x5fbdb2315678afecb367f032d93f642f64180aa3",
      "contractAddress": null
    },
    {
      "status": "0x1",
      "cumulativeGasUsed": "0x22e6f",
      "logs": [
        {
          "address": "0x5fbdb2315678afecb367f032d93f642f64180aa3",
          "topics": [
            "0x58baaadea2cb621ef6d4e8beecb380e4aff14ecb77e3c2e40f043a666cb14c2d",
            "0x0000000000000000000000000000000000000000000000000000000000000003"
          ],
          "data": "0x00000000000000000000000000000000000000000000000000470de4df82000000000000000000000000000000000000000000000000000000000000000000c8000000000000000000000000000000000000000000000000000000000000003c",
          "blockHash": "0x2724d54d9697c92aa5b2d884946b926b4f4dcdbd310184aaa7213677e5bba5dc",
          "blockNumber": "0x4",
          "blockTimestamp": "0x691f3d92",
          "transactionHash": "0x91067bd2a130021867b0edc2f93b076ca5f4a608117e41d29fe453dd202eac19",
          "transactionIndex": "0x0",
          "logIndex": "0x0",
          "removed": false
        }
      ],
      "logsBloom": "0x00000000000000000000000000000000000000000000000000000000000000000000000000000000000000000000000000000000020000000000000002000000000000000000000000000000000000000000000000000000000000000000000000000040000000000000000000000000000000000000000000000000000000000000000000000000000000000000000000000000000000000000000200000000000000000000000000000000000000000040000000800000000000000000400000000040000000000000000000800000000000000000000000000000000000000000000000000000000000000000000000000000000000000000000000000000",
      "type": "0x2",
      "transactionHash": "0x91067bd2a130021867b0edc2f93b076ca5f4a608117e41d29fe453dd202eac19",
      "transactionIndex": "0x0",
      "blockHash": "0x2724d54d9697c92aa5b2d884946b926b4f4dcdbd310184aaa7213677e5bba5dc",
      "blockNumber": "0x4",
      "gasUsed": "0x22e6f",
      "effectiveGasPrice": "0x2a11e31d",
      "blobGasPrice": "0x1",
      "from": "0xf39fd6e51aad88f6f4ce6ab8827279cfffb92266",
      "to": "0x5fbdb2315678afecb367f032d93f642f64180aa3",
      "contractAddress": null
    }
  ],
  "libraries": [],
  "pending": [],
  "returns": {},
  "timestamp": 1763655058658,
  "chain": 31337,
  "commit": "e77ef31"
}