{
  "transactions": [
    {
      "hash": "0x8d08cbeaa0deea77afd799aaddb5dcc848b58a3f96dd09b902f7865302516cfa",
      "transactionType": "CALL",
      "contractName": null,
      "contractAddress": "0x5fbdb2315678afecb367f032d93f642f64180aa3",
      "function": "configureEventSale(uint256,uint256,uint256)",
      "arguments": [
        "1",
        "10000000000000000",
        "500"
      ],
      "transaction": {
        "from": "0xf39fd6e51aad88f6f4ce6ab8827279cfffb92266",
        "to": "0x5fbdb2315678afecb367f032d93f642f64180aa3",
        "gas": "0x21c70",
        "value": "0x0",
        "input": "0xb9e434860000000000000000000000000000000000000000000000000000000000000001000000000000000000000000000000000000000000000000002386f26fc1000000000000000000000000000000000000000000000000000000000000000001f4",
        "nonce": "0x1",
        "chainId": "0x7a69"
      },
      "additionalContracts": [],
      "isFixedGasLimit": false
    },
    {
      "hash": "0x86e7939eea0eeca0cfc18181f33d89479c4c804c88e491caa63ed17d6a4f7b1c",
      "transactionType": "CALL",
      "contractName": null,
      "contractAddress": "0x5fbdb2315678afecb367f032d93f642f64180aa3",
      "function": "configureEventSale(uint256,uint256,uint256)",
      "arguments": [
        "2",
        "50000000000000000",
        "100"
      ],
      "transaction": {
        "from": "0xf39fd6e51aad88f6f4ce6ab8827279cfffb92266",
        "to": "0x5fbdb2315678afecb367f032d93f642f64180aa3",
        "gas": "0x23c29",
        "value": "0x0",
        "input": "0xb9e43486000000000000000000000000000000000000000000000000000000000000000200000000000000000000000000000000000000000000000000b1a2bc2ec500000000000000000000000000000000000000000000000000000000000000000064",
        "nonce": "0x2",
        "chainId": "0x7a69"
      },
      "additionalContracts": [],
      "isFixedGasLimit": false
    },
    {
      "hash": "0xe770e5cb7e5406c1d7f39550af16ffb3a6f4f0388a717fee45e54237186f6750",
      "transactionType": "CALL",
      "contractName": null,
      "contractAddress": "0x5fbdb2315678afecb367f032d93f642f64180aa3",
      "function": "configureEventSale(uint256,uint256,uint256)",
      "arguments": [
        "3",
        "20000000000000000",
        "200"
      ],
      "transaction": {
        "from": "0xf39fd6e51aad88f6f4ce6ab8827279cfffb92266",
        "to": "0x5fbdb2315678afecb367f032d93f642f64180aa3",
        "gas": "0x23c29",
        "value": "0x0",
        "input": "0xb9e43486000000000000000000000000000000000000000000000000000000000000000300000000000000000000000000000000000000000000000000470de4df82000000000000000000000000000000000000000000000000000000000000000000c8",
        "nonce": "0x3",
        "chainId": "0x7a69"
      },
      "additionalContracts": [],
      "isFixedGasLimit": false
    }
  ],
  "receipts": [
    {
      "status": "0x1",
      "cumulativeGasUsed": "0x18745",
      "logs": [
        {
          "address": "0x5fbdb2315678afecb367f032d93f642f64180aa3",
          "topics": [
            "0xcf8f2d1fed1bb3c41e7569aa72dfd718d544d8c06bcca36de976392ac17647b3",
            "0x0000000000000000000000000000000000000000000000000000000000000001"
          ],
          "data": "0x000000000000000000000000000000000000000000000000002386f26fc1000000000000000000000000000000000000000000000000000000000000000001f4",
          "blockHash": "0x8084e97442193a355573e120d73e1ed1b60ea15122fd6923d082a11cf6e89b2a",
          "blockNumber": "0x2",
          "blockTimestamp": "0x68f1e41f",
          "transactionHash": "0x8d08cbeaa0deea77afd799aaddb5dcc848b58a3f96dd09b902f7865302516cfa",
          "transactionIndex": "0x0",
          "logIndex": "0x0",
          "removed": false
        }
      ],
      "logsBloom": "0x00000000000000000000000000000000000000000000000000000000000000000000000000000000000000000000000000000000000000000000000000040000000000000000100000000000000000000000000000040000000000000000000000000040000000000000000000000000000000000000000000000000000000000000000000000000000000000000000000000000000000000000000200000000000000000000000000000000000000000000000000000000000000000000000000000040000000000000000000000001000000000000000000000000000040000000001000000000000000000000000000000000000000000000000000000000",
      "type": "0x2",
      "transactionHash": "0x8d08cbeaa0deea77afd799aaddb5dcc848b58a3f96dd09b902f7865302516cfa",
      "transactionIndex": "0x0",
      "blockHash": "0x8084e97442193a355573e120d73e1ed1b60ea15122fd6923d082a11cf6e89b2a",
      "blockNumber": "0x2",
      "gasUsed": "0x18745",
      "effectiveGasPrice": "0x3640f6a6",
      "blobGasPrice": "0x1",
      "from": "0xf39fd6e51aad88f6f4ce6ab8827279cfffb92266",
      "to": "0x5fbdb2315678afecb367f032d93f642f64180aa3",
      "contractAddress": null
    },
    {
      "status": "0x1",
      "cumulativeGasUsed": "0x18739",
      "logs": [
        {
          "address": "0x5fbdb2315678afecb367f032d93f642f64180aa3",
          "topics": [
            "0xcf8f2d1fed1bb3c41e7569aa72dfd718d544d8c06bcca36de976392ac17647b3",
            "0x0000000000000000000000000000000000000000000000000000000000000002"
          ],
          "data": "0x00000000000000000000000000000000000000000000000000b1a2bc2ec500000000000000000000000000000000000000000000000000000000000000000064",
          "blockHash": "0xb17a8a1285027ec78bd37850af76abc6bbe727e9925933a9724d57f3219e1810",
          "blockNumber": "0x3",
          "blockTimestamp": "0x68f1e41f",
          "transactionHash": "0x86e7939eea0eeca0cfc18181f33d89479c4c804c88e491caa63ed17d6a4f7b1c",
          "transactionIndex": "0x0",
          "logIndex": "0x0",
          "removed": false
        }
      ],
      "logsBloom": "0x04000000000000000000000000000000000000000000000000000000000000000000000000000000000000000000000000000000000000000000000000000000000000000000100000000000000000000000000000000000000000000000000000000040000000000000000000000000000000000000000000000000000000000000000000000000000000000000000000000000000000000000000200000000000000000000000000000100000000000000000000000000000000000000000000000040000000000000000000000001000000000000000000000000000000000000001000000000000000000000000000000000008000000000000000000000",
      "type": "0x2",
      "transactionHash": "0x86e7939eea0eeca0cfc18181f33d89479c4c804c88e491caa63ed17d6a4f7b1c",
      "transactionIndex": "0x0",
      "blockHash": "0xb17a8a1285027ec78bd37850af76abc6bbe727e9925933a9724d57f3219e1810",
      "blockNumber": "0x3",
      "gasUsed": "0x18739",
      "effectiveGasPrice": "0x2f846fb0",
      "blobGasPrice": "0x1",
      "from": "0xf39fd6e51aad88f6f4ce6ab8827279cfffb92266",
      "to": "0x5fbdb2315678afecb367f032d93f642f64180aa3",
      "contractAddress": null
    },
    {
      "status": "0x1",
      "cumulativeGasUsed": "0x18739",
      "logs": [
        {
          "address": "0x5fbdb2315678afecb367f032d93f642f64180aa3",
          "topics": [
            "0xcf8f2d1fed1bb3c41e7569aa72dfd718d544d8c06bcca36de976392ac17647b3",
            "0x0000000000000000000000000000000000000000000000000000000000000003"
          ],
          "data": "0x00000000000000000000000000000000000000000000000000470de4df82000000000000000000000000000000000000000000000000000000000000000000c8",
          "blockHash": "0xe53534fe64fa21a84d266481151f5c40eba00dfe1fdd0247e62e58ca02c5391b",
          "blockNumber": "0x4",
          "blockTimestamp": "0x68f1e41f",
          "transactionHash": "0xe770e5cb7e5406c1d7f39550af16ffb3a6f4f0388a717fee45e54237186f6750",
          "transactionIndex": "0x0",
          "logIndex": "0x0",
          "removed": false
        }
      ],
      "logsBloom": "0x00000000000000000000000000000000000000000000000000000000000000000000000000000000000000000000000000000000020000000000000000000000000000000000100000000000000000000000000000000000000000000000000000000040000000000000000000000000000000000000000000000000000000000000000000000000000000000000000000000000000000000000000200000000000000000000000000000000000000000000000000800000000000000000400000000040000000000000000000000001000000000000000000000000000000000000001000000000000000000000000000000000000000000000000000000000",
      "type": "0x2",
      "transactionHash": "0xe770e5cb7e5406c1d7f39550af16ffb3a6f4f0388a717fee45e54237186f6750",
      "transactionIndex": "0x0",
      "blockHash": "0xe53534fe64fa21a84d266481151f5c40eba00dfe1fdd0247e62e58ca02c5391b",
      "blockNumber": "0x4",
      "gasUsed": "0x18739",
      "effectiveGasPrice": "0x299e08c7",
      "blobGasPrice": "0x1",
      "from": "0xf39fd6e51aad88f6f4ce6ab8827279cfffb92266",
      "to": "0x5fbdb2315678afecb367f032d93f642f64180aa3",
      "contractAddress": null
    }
  ],
  "libraries": [],
  "pending": [],
  "returns": {},
  "timestamp": 1760683039581,
  "chain": 31337,
  "commit": "406ad56"
}